:100000000C942A000C9447000C9447000C94470071
:100010000C9447000C9447000C9447000C94470044
:100020000C9447000C9447000C9447000C94470034
:100030000C9447000C9447000C9447000C94470024
:100040000C9447000C9447000C9447000C94470014
:100050000C94470011241FBECFE5D8E0DEBFCDBF12
:1000600010E0A0E6B0E0E0EAF1E002C005900D92F9
:10007000A036B107D9F710E0A0E6B0E001C01D92AC
:10008000A036B107E1F70E94CB000C94CE000C948F
:10009000000011B888E480B9089594EA96BF06B6C6
:1000A00007FEFDCF91B1987F983071F483B984E851
:1000B00086BF06B607FEFDCF81B1887F883131F05B
:1000C000803231F482E0089580E0089581E008955F
:1000D00083E0089594EA96BF06B607FEFDCF91B17E
:1000E000987F903171F483B984E886BF06B607FE25
:1000F000FDCF81B1887F803431F0803231F482E0ED
:10010000089580E0089581E0089583E0089584E9EA
:1001100086BF06B604FCFDCF08951F93CF93DF93EF
:10012000182FC4EAD4E8C6BF06B607FEFDCF81B1DA
:10013000887F8830C1F713B9D6BF06B607FEFDCF5A
:1001400081B1887F883119F00E948700ECCFDF9160
:10015000CF911F91089583B984E886BF06B607FE44
:10016000FDCF81B1887F883221F0803321F481E096
:10017000089580E0089582E0089584EC86BF06B675
:1001800007FEFDCF83B1089584E886BF06B607FE5B
:10019000FDCF83B108950E944900FFCFF894FFCFAF
:00000001FF
